{
  "transactions": [
    {
      "hash": "0xb3383e9d5323f5e0baaa95696a88f1a28595073ccdbdf5f165aeced5400bc3e9",
      "transactionType": "CALL",
      "contractName": null,
      "contractAddress": "0x779877A7B0D9E8603169DdbD7836e478b4624789",
      "function": "transferAndCall(address,uint256,bytes)",
      "arguments": [
        "0x8103B0A8A00be2DDC778e6e7eaa21791Cd364625",
        "3000000000000000000",
        "0x0000000000000000000000000000000000000000000000000000000000001fb7"
      ],
      "transaction": {
        "type": "0x02",
        "from": "0x30d5a633ab362b4bdd040bdecfefe2ea3f29c00e",
        "to": "0x779877a7b0d9e8603169ddbd7836e478b4624789",
        "gas": "0x13fbe",
        "value": "0x0",
        "data": "0x4000aea00000000000000000000000008103b0a8a00be2ddc778e6e7eaa21791cd36462500000000000000000000000000000000000000000000000029a2241af62c0000000000000000000000000000000000000000000000000000000000000000006000000000000000000000000000000000000000000000000000000000000000200000000000000000000000000000000000000000000000000000000000001fb7",
        "nonce": "0xb",
        "accessList": []
      },
      "additionalContracts": [],
      "isFixedGasLimit": false
    }
  ],
  "receipts": [],
  "libraries": [],
  "pending": [
    "0xb3383e9d5323f5e0baaa95696a88f1a28595073ccdbdf5f165aeced5400bc3e9"
  ],
  "returns": {},
  "timestamp": 1707212131,
  "chain": 11155111,
  "multi": false,
  "commit": "ca1c618"
}