{
  "transactions": [
    {
      "hash": "0xb3383e9d5323f5e0baaa95696a88f1a28595073ccdbdf5f165aeced5400bc3e9",
      "transactionType": "CALL",
      "contractName": null,
      "contractAddress": "0x779877A7B0D9E8603169DdbD7836e478b4624789",
      "function": "transferAndCall(address,uint256,bytes)",
      "arguments": [
        "0x8103B0A8A00be2DDC778e6e7eaa21791Cd364625",
        "3000000000000000000",
        "0x0000000000000000000000000000000000000000000000000000000000001fb7"
      ],
      "transaction": {
        "type": "0x02",
        "from": "0x30d5a633ab362b4bdd040bdecfefe2ea3f29c00e",
        "to": "0x779877a7b0d9e8603169ddbd7836e478b4624789",
        "gas": "0x13fbe",
        "value": "0x0",
        "data": "0x4000aea00000000000000000000000008103b0a8a00be2ddc778e6e7eaa21791cd36462500000000000000000000000000000000000000000000000029a2241af62c0000000000000000000000000000000000000000000000000000000000000000006000000000000000000000000000000000000000000000000000000000000000200000000000000000000000000000000000000000000000000000000000001fb7",
        "nonce": "0xb",
        "accessList": []
      },
      "additionalContracts": [],
      "isFixedGasLimit": false
    }
  ],
  "receipts": [
    {
      "transactionHash": "0xb3383e9d5323f5e0baaa95696a88f1a28595073ccdbdf5f165aeced5400bc3e9",
      "transactionIndex": "0x47",
      "blockHash": "0xebf3b1405008ee87f6fb1845d49da9ac7d04d046c261218cf02e1796e50e3619",
      "blockNumber": "0x4fd2e1",
      "from": "0x30d5A633ab362b4bDd040BdECfefe2Ea3F29c00E",
      "to": "0x779877A7B0D9E8603169DdbD7836e478b4624789",
      "cumulativeGasUsed": "0x5fde89",
      "gasUsed": "0xe77e",
      "contractAddress": null,
      "logs": [
        {
          "address": "0x779877A7B0D9E8603169DdbD7836e478b4624789",
          "topics": [
            "0xddf252ad1be2c89b69c2b068fc378daa952ba7f163c4a11628f55a4df523b3ef",
            "0x00000000000000000000000030d5a633ab362b4bdd040bdecfefe2ea3f29c00e",
            "0x0000000000000000000000008103b0a8a00be2ddc778e6e7eaa21791cd364625"
          ],
          "data": "0x00000000000000000000000000000000000000000000000029a2241af62c0000",
          "blockHash": "0xebf3b1405008ee87f6fb1845d49da9ac7d04d046c261218cf02e1796e50e3619",
          "blockNumber": "0x4fd2e1",
          "transactionHash": "0xb3383e9d5323f5e0baaa95696a88f1a28595073ccdbdf5f165aeced5400bc3e9",
          "transactionIndex": "0x47",
          "logIndex": "0x5f",
          "removed": false
        },
        {
          "address": "0x779877A7B0D9E8603169DdbD7836e478b4624789",
          "topics": [
            "0xe19260aff97b920c7df27010903aeb9c8d2be5d310a2c67824cf3f15396e4c16",
            "0x00000000000000000000000030d5a633ab362b4bdd040bdecfefe2ea3f29c00e",
            "0x0000000000000000000000008103b0a8a00be2ddc778e6e7eaa21791cd364625"
          ],
          "data": "0x00000000000000000000000000000000000000000000000029a2241af62c0000000000000000000000000000000000000000000000000000000000000000004000000000000000000000000000000000000000000000000000000000000000200000000000000000000000000000000000000000000000000000000000001fb7",
          "blockHash": "0xebf3b1405008ee87f6fb1845d49da9ac7d04d046c261218cf02e1796e50e3619",
          "blockNumber": "0x4fd2e1",
          "transactionHash": "0xb3383e9d5323f5e0baaa95696a88f1a28595073ccdbdf5f165aeced5400bc3e9",
          "transactionIndex": "0x47",
          "logIndex": "0x60",
          "removed": false
        },
        {
          "address": "0x8103B0A8A00be2DDC778e6e7eaa21791Cd364625",
          "topics": [
            "0xd39ec07f4e209f627a4c427971473820dc129761ba28de8906bd56f57101d4f8",
            "0x0000000000000000000000000000000000000000000000000000000000001fb7"
          ],
          "data": "0x0000000000000000000000000000000000000000000000004563918244f400000000000000000000000000000000000000000000000000006f05b59d3b200000",
          "blockHash": "0xebf3b1405008ee87f6fb1845d49da9ac7d04d046c261218cf02e1796e50e3619",
          "blockNumber": "0x4fd2e1",
          "transactionHash": "0xb3383e9d5323f5e0baaa95696a88f1a28595073ccdbdf5f165aeced5400bc3e9",
          "transactionIndex": "0x47",
          "logIndex": "0x61",
          "removed": false
        }
      ],
      "status": "0x1",
      "logsBloom": "0x0000001400000000000000000000000000000000000000020000000002000000000000000000800000000000000000000000000000000000000000000000000000000000000000000001000800000010000000000000000000002000000000000000000400000000000000002000000000000000400000000000001000000000000000000c000020000000000000800010000020000800000000000000000000000000000000000000000000000000000000000000000000000400000000000000000002000000000000000000000000000000000000000100000000000000000000000000000000000000000000000000000000000000000010000000000000",
      "type": "0x2",
      "effectiveGasPrice": "0x1326e64bab"
    }
  ],
  "libraries": [],
  "pending": [],
  "returns": {},
  "timestamp": 1707212138,
  "chain": 11155111,
  "multi": false,
  "commit": "ca1c618"
}